{
  "contractName": "SmartPledge",
  "abi": [
    {
      "constant": true,
      "inputs": [
        {
          "name": "",
          "type": "bytes32"
        }
      ],
      "name": "pledges",
      "outputs": [
        {
          "name": "pledgeCreatorAddress",
          "type": "address"
        },
        {
          "name": "pledgeSubjectAddress",
          "type": "address"
        },
        {
          "name": "pledgeHash",
          "type": "bytes32"
        },
        {
          "name": "pledgeAmount",
          "type": "uint256"
        },
        {
          "name": "pledgeStatus",
          "type": "uint8"
        }
      ],
      "payable": false,
      "stateMutability": "view",
      "type": "function"
    },
    {
      "inputs": [],
      "payable": false,
      "stateMutability": "nonpayable",
      "type": "constructor"
    },
    {
      "constant": true,
      "inputs": [],
      "name": "getOwner",
      "outputs": [
        {
          "name": "",
          "type": "address"
        }
      ],
      "payable": false,
      "stateMutability": "view",
      "type": "function"
    },
    {
      "constant": true,
      "inputs": [],
      "name": "getContractOwnerFees",
      "outputs": [
        {
          "name": "",
          "type": "uint256"
        }
      ],
      "payable": false,
      "stateMutability": "view",
      "type": "function"
    },
    {
      "constant": false,
      "inputs": [
        {
          "name": "_pledgeHash",
          "type": "bytes32"
        }
      ],
      "name": "createPledge",
      "outputs": [
        {
          "name": "success",
          "type": "bool"
        }
      ],
      "payable": true,
      "stateMutability": "payable",
      "type": "function"
    },
    {
      "constant": false,
      "inputs": [
        {
          "name": "_pledgeHash",
          "type": "bytes32"
        },
        {
          "name": "_pledgeSubjectAddress",
          "type": "address"
        }
      ],
      "name": "createPledgeWithAddress",
      "outputs": [
        {
          "name": "success",
          "type": "bool"
        }
      ],
      "payable": true,
      "stateMutability": "payable",
      "type": "function"
    },
    {
      "constant": true,
      "inputs": [
        {
          "name": "_pledgeHash",
          "type": "bytes32"
        }
      ],
      "name": "getPledge",
      "outputs": [
        {
          "name": "pledgeCreatorAddress",
          "type": "address"
        },
        {
          "name": "pledgeSubjectAddress",
          "type": "address"
        },
        {
          "name": "pledgeAmount",
          "type": "uint256"
        },
        {
          "name": "pledgeStatus",
          "type": "uint8"
        }
      ],
      "payable": false,
      "stateMutability": "view",
      "type": "function"
    },
    {
      "constant": false,
      "inputs": [
        {
          "name": "_pledgeHash",
          "type": "bytes32"
        },
        {
          "name": "_pledgeSubjectAddress",
          "type": "address"
        }
      ],
      "name": "acceptPledge",
      "outputs": [
        {
          "name": "success",
          "type": "bool"
        }
      ],
      "payable": false,
      "stateMutability": "nonpayable",
      "type": "function"
    },
    {
      "constant": false,
      "inputs": [
        {
          "name": "_pledgeHash",
          "type": "bytes32"
        }
      ],
      "name": "fundPledge",
      "outputs": [
        {
          "name": "success",
          "type": "bool"
        }
      ],
      "payable": true,
      "stateMutability": "payable",
      "type": "function"
    },
    {
      "constant": false,
      "inputs": [
        {
          "name": "_pledgeHash",
          "type": "bytes32"
        },
        {
          "name": "_pledgeStatus",
          "type": "uint256"
        }
      ],
      "name": "finalisePledge",
      "outputs": [
        {
          "name": "success",
          "type": "bool"
        }
      ],
      "payable": true,
      "stateMutability": "payable",
      "type": "function"
    },
    {
      "constant": false,
      "inputs": [],
      "name": "payContractOwner",
      "outputs": [
        {
          "name": "success",
          "type": "bool"
        }
      ],
      "payable": false,
      "stateMutability": "nonpayable",
      "type": "function"
    }
  ],
  "bytecode": "0x608060405234801561001057600080fd5b50336000806101000a81548173ffffffffffffffffffffffffffffffffffffffff021916908373ffffffffffffffffffffffffffffffffffffffff160217905550610d9a806100606000396000f3006080604052600436106100a4576000357c0100000000000000000000000000000000000000000000000000000000900463ffffffff16806333f8f542146100a9578063893d20e8146101125780638ed32f3114610169578063c046bdb814610230578063c0a4a75b1461025b578063d01739cb146102a1578063de672c5c14610359578063e32f9a8914610395578063e5814420146103f1578063ff30ef7214610420575b600080fd5b3480156100b557600080fd5b506100f86004803603810190808035600019169060200190929190803573ffffffffffffffffffffffffffffffffffffffff16906020019092919050505061045c565b604051808215151515815260200191505060405180910390f35b34801561011e57600080fd5b50610127610594565b604051808273ffffffffffffffffffffffffffffffffffffffff1673ffffffffffffffffffffffffffffffffffffffff16815260200191505060405180910390f35b34801561017557600080fd5b5061019860048036038101908080356000191690602001909291905050506105bd565b604051808673ffffffffffffffffffffffffffffffffffffffff1673ffffffffffffffffffffffffffffffffffffffff1681526020018573ffffffffffffffffffffffffffffffffffffffff1673ffffffffffffffffffffffffffffffffffffffff16815260200184600019166000191681526020018381526020018260ff1660ff1681526020019550505050505060405180910390f35b34801561023c57600080fd5b50610245610640565b6040518082815260200191505060405180910390f35b61028760048036038101908080356000191690602001909291908035906020019092919050505061064a565b604051808215151515815260200191505060405180910390f35b3480156102ad57600080fd5b506102d060048036038101908080356000191690602001909291905050506108af565b604051808573ffffffffffffffffffffffffffffffffffffffff1673ffffffffffffffffffffffffffffffffffffffff1681526020018473ffffffffffffffffffffffffffffffffffffffff1673ffffffffffffffffffffffffffffffffffffffff1681526020018381526020018260ff1660ff16815260200194505050505060405180910390f35b61037b600480360381019080803560001916906020019092919050505061098d565b604051808215151515815260200191505060405180910390f35b6103d76004803603810190808035600019169060200190929190803573ffffffffffffffffffffffffffffffffffffffff169060200190929190505050610ac8565b604051808215151515815260200191505060405180910390f35b3480156103fd57600080fd5b50610406610c61565b604051808215151515815260200191505060405180910390f35b6104426004803603810190808035600019169060200190929190505050610d37565b604051808215151515815260200191505060405180910390f35b600060026000846000191660001916815260200190815260200160002060000160009054906101000a900473ffffffffffffffffffffffffffffffffffffffff1673ffffffffffffffffffffffffffffffffffffffff163373ffffffffffffffffffffffffffffffffffffffff16148061052257506000809054906101000a900473ffffffffffffffffffffffffffffffffffffffff1673ffffffffffffffffffffffffffffffffffffffff163373ffffffffffffffffffffffffffffffffffffffff16145b151561052d57600080fd5b8160026000856000191660001916815260200190815260200160002060010160006101000a81548173ffffffffffffffffffffffffffffffffffffffff021916908373ffffffffffffffffffffffffffffffffffffffff1602179055506001905092915050565b60008060009054906101000a900473ffffffffffffffffffffffffffffffffffffffff16905090565b60026020528060005260406000206000915090508060000160009054906101000a900473ffffffffffffffffffffffffffffffffffffffff16908060010160009054906101000a900473ffffffffffffffffffffffffffffffffffffffff16908060020154908060030154908060040160009054906101000a900460ff16905085565b6000600154905090565b60008060008060026000876000191660001916815260200190815260200160002060000160009054906101000a900473ffffffffffffffffffffffffffffffffffffffff1673ffffffffffffffffffffffffffffffffffffffff163373ffffffffffffffffffffffffffffffffffffffff16148061071457506000809054906101000a900473ffffffffffffffffffffffffffffffffffffffff1673ffffffffffffffffffffffffffffffffffffffff163373ffffffffffffffffffffffffffffffffffffffff16145b151561071f57600080fd5b600060026000886000191660001916815260200190815260200160002060040160009054906101000a900460ff1660ff1614151561075c57600080fd5b600260008760001916600019168152602001908152602001600020600301549250600260648481151561078b57fe5b0402915081830390508160015401600181905550600185141561086a5760026000876000191660001916815260200190815260200160002060010160009054906101000a900473ffffffffffffffffffffffffffffffffffffffff1673ffffffffffffffffffffffffffffffffffffffff166108fc829081150290604051600060405180830381858888f1935050505015801561082c573d6000803e3d6000fd5b50600160026000886000191660001916815260200190815260200160002060040160006101000a81548160ff021916908360ff1602179055506108a2565b6002806000886000191660001916815260200190815260200160002060040160006101000a81548160ff021916908360ff1602179055505b6001935050505092915050565b60008060008060026000866000191660001916815260200190815260200160002060000160009054906101000a900473ffffffffffffffffffffffffffffffffffffffff1660026000876000191660001916815260200190815260200160002060010160009054906101000a900473ffffffffffffffffffffffffffffffffffffffff166002600088600019166000191681526020019081526020016000206003015460026000896000191660001916815260200190815260200160002060040160009054906101000a900460ff1693509350935093509193509193565b60008073ffffffffffffffffffffffffffffffffffffffff1660026000846000191660001916815260200190815260200160002060000160009054906101000a900473ffffffffffffffffffffffffffffffffffffffff1673ffffffffffffffffffffffffffffffffffffffff16141515610a0757600080fd5b34600260008460001916600019168152602001908152602001600020600301819055503360026000846000191660001916815260200190815260200160002060000160006101000a81548173ffffffffffffffffffffffffffffffffffffffff021916908373ffffffffffffffffffffffffffffffffffffffff160217905550600060026000846000191660001916815260200190815260200160002060040160006101000a81548160ff021916908360ff16021790555060019050919050565b60008073ffffffffffffffffffffffffffffffffffffffff1660026000856000191660001916815260200190815260200160002060000160009054906101000a900473ffffffffffffffffffffffffffffffffffffffff1673ffffffffffffffffffffffffffffffffffffffff16141515610b4257600080fd5b34600260008560001916600019168152602001908152602001600020600301819055503360026000856000191660001916815260200190815260200160002060000160006101000a81548173ffffffffffffffffffffffffffffffffffffffff021916908373ffffffffffffffffffffffffffffffffffffffff1602179055508160026000856000191660001916815260200190815260200160002060010160006101000a81548173ffffffffffffffffffffffffffffffffffffffff021916908373ffffffffffffffffffffffffffffffffffffffff160217905550600060026000856000191660001916815260200190815260200160002060040160006101000a81548160ff021916908360ff1602179055506001905092915050565b60008060009054906101000a900473ffffffffffffffffffffffffffffffffffffffff1673ffffffffffffffffffffffffffffffffffffffff163373ffffffffffffffffffffffffffffffffffffffff16141515610cbe57600080fd5b6000809054906101000a900473ffffffffffffffffffffffffffffffffffffffff1673ffffffffffffffffffffffffffffffffffffffff166108fc6001549081150290604051600060405180830381858888f19350505050158015610d27573d6000803e3d6000fd5b5060006001819055506001905090565b60003460026000846000191660001916815260200190815260200160002060030160008282540192505081905550600190509190505600a165627a7a723058202b84b9208c775a143a94ae7f7fba805633e884f4877d3c762b456a1e5a7f87820029",
  "source": "pragma solidity ^0.4.24;\n\ncontract SmartPledge {\n// Array logs live initiated pledges with creators address and IPFS hash.\n// Pledges are removed when they have been finalised by sending to\n// subject. Pledge status is set to 0 = pledge live, 1 = successfully complete, 2 = failed.\n\tstruct PledgeStruct {\n\t\taddress pledgeCreatorAddress;\n\t\taddress pledgeSubjectAddress;\n\t\tbytes32 pledgeHash;\n\t\tuint pledgeAmount;\n\t\tuint8 pledgeStatus;\n\t}\n\n\t// Contract creator address\n\taddress owner;\n    function getOwner() view public returns (address) {\n    \treturn owner;\n    }\n    constructor() public {\n        owner = msg.sender;\n    }\n\n\t// Fees collected for project creators from finalisePledge calls\n\tuint contractOwnerFees;\n    function getContractOwnerFees() view public returns (uint) {\n    \treturn contractOwnerFees;\n    }\n\n    // Dictionary of pledges\n\tmapping (bytes32 => PledgeStruct) public pledges;\n\n\t// Pledge creator functions\n\t// Creator sets up a pledge\n\t// with amount of Eth they want to give\n\tfunction createPledge(\n\t\tbytes32 _pledgeHash)\n\t\tpublic payable\n\t\treturns (bool success)\n\t{\n\t\t// Add pledge to mapping with unique hash\n\t\t// passed from IPFS storage node\n\n\t\t// Check that _pledgeHash is not already in use\n\t\t// since mapping index must be unique.\n\t\trequire(pledges[_pledgeHash].pledgeCreatorAddress == 0x0000000000000000000000000000000000000000);\n\t\t// Add pledges \n\t\tpledges[_pledgeHash].pledgeAmount = msg.value;\n\t\tpledges[_pledgeHash].pledgeCreatorAddress = msg.sender;\n\t\tpledges[_pledgeHash].pledgeStatus = 0;\n\t\treturn true;\n\t}\n\n\t// Creator sets up a pledge including pledge subject's address\n\t// This is an overloaded function.\n\tfunction createPledgeWithAddress(\n\t\tbytes32 _pledgeHash,\n\t\taddress _pledgeSubjectAddress)\n\t\tpublic payable\n\t\treturns (bool success)\n\t{\n\t\t// Add pledge to mapping with unique hash\n\t\t// passed from IPFS storage node\n\n\t\t// Check that _pledgeHash is not already in use\n\t\t// since mapping index must be unique.\n\t\trequire(pledges[_pledgeHash].pledgeCreatorAddress == 0x0000000000000000000000000000000000000000);\n\t\t// Add pledges \n\t\tpledges[_pledgeHash].pledgeAmount = msg.value;\n\t\tpledges[_pledgeHash].pledgeCreatorAddress = msg.sender;\n\t\tpledges[_pledgeHash].pledgeSubjectAddress = _pledgeSubjectAddress;\n\t\tpledges[_pledgeHash].pledgeStatus = 0;\n\t\treturn true;\n\t}\n\n\t// Access a given pledge's details\n\tfunction getPledge(\n\t\tbytes32 _pledgeHash)\n\t\tview public\n\t\treturns(\n\t\t\taddress pledgeCreatorAddress,\n\t\t\taddress pledgeSubjectAddress,\n\t\t\tuint pledgeAmount,\n\t\t\tuint8 pledgeStatus\n\t\t\t) \n\t{\n\t\treturn (\n\t\t\tpledges[_pledgeHash].pledgeCreatorAddress,\n\t\t\tpledges[_pledgeHash].pledgeSubjectAddress,\n\t\t\tpledges[_pledgeHash].pledgeAmount,\n\t\t\tpledges[_pledgeHash].pledgeStatus\n\t\t\t);\n\t}\n\n\t// Pledge creator or contract owner accepts pledge on subject's behalf by adding their Ethereum address\n\t// TODO stop pledge being accepted if it already has an address assigned\n\tfunction acceptPledge(\n\t\tbytes32 _pledgeHash,\n\t\taddress _pledgeSubjectAddress)\n\t\tpublic\n\t\treturns (bool success)\n\t{\n\t\trequire(msg.sender == pledges[_pledgeHash].pledgeCreatorAddress || msg.sender == owner);\n\t\tpledges[_pledgeHash].pledgeSubjectAddress = _pledgeSubjectAddress;\n\t\treturn true;\n\t}\n\n\t// Supporter adds funds to increase pledge success reward\n\t// TODO Check pledge is not complete before allowing funding\n\tfunction fundPledge(\n\t\tbytes32 _pledgeHash)\n\t\tpublic payable\n\t\treturns (bool success)\n\t{\n\t\tpledges[_pledgeHash].pledgeAmount += msg.value;\n\t\treturn true;\n\t}\n\n\t// Creator marks pledge as successful and sends Ether to subject's Ethereum address if so\n\tfunction finalisePledge(\n\t\tbytes32 _pledgeHash,\n\t\tuint _pledgeStatus)\n\t\tpublic\n\t\tpayable\n\t\treturns (bool success)\n\t{\n\t\trequire(msg.sender == pledges[_pledgeHash].pledgeCreatorAddress || msg.sender == owner);\n\t\trequire(pledges[_pledgeHash].pledgeStatus == 0);\n\t\t// Pay recipient Ether and project creators 2% of gift amount\n\t\tuint amount = pledges[_pledgeHash].pledgeAmount;\n\t\tuint fee = (amount / 100) * 2;\n\t\tuint finalPledge = amount - fee;\n\t\tcontractOwnerFees = contractOwnerFees + fee;\n\t\tif(_pledgeStatus == 1) {\n\t\t\t// uint160 subjectAddress = address(uint160(bytes256(pledges[_pledgeHash].pledgeSubjectAddress)));\n\t\t\t// address payable subjectPayableAddress = subjectAddress;\n\t\t\t// subjectPayableAddress.transfer(finalPledge);\n\t\t\tpledges[_pledgeHash].pledgeSubjectAddress.transfer(finalPledge);\n\t\t\tpledges[_pledgeHash].pledgeStatus = 1;\n\t\t}\n\t\telse {\n\t\t\tpledges[_pledgeHash].pledgeStatus = 2;\n\t\t}\n\t\treturn true;\n\t}\n\n\t// Project creators collect their fees\n\tfunction payContractOwner() public returns (bool success) {\n\t\trequire (msg.sender == owner);\n\t\towner.transfer(contractOwnerFees);\n\t\tcontractOwnerFees = 0;\n\t\treturn true;\n\t}\n\n}\n",
  "sourcePath": "/Users/technical/code/ethereum/bcat/pledge-monorepo/contracts/SmartPledge.sol",
  "compiler": {
    "name": "solc",
    "version": "0.4.24+commit.e67f0147.Emscripten.clang"
  },
  "schemaVersion": "3.0.1",
  "updatedAt": "2019-03-11T13:34:25.667Z",
  "devdoc": {
    "methods": {}
  },
  "userdoc": {
    "methods": {}
  }
}